:060000000A128A11122809
:10000800FE00030EF6000408F7000A08F800831241
:1000180003137F08F9000A168A11B82C0A168A11E8
:10002800222A00308A000408840A82070034013436
:1000380000340A34003464340034E83403341034AF
:10004800273433345434203452344F3442344F3408
:100058005434493443342034473452344F345534BB
:10006800503400347734773477342E3472346F3424
:1000780062346F347434333474342E3463346F34EC
:100088006D340034533465346C34653463347434FB
:1000980020344D346F34643465343A340034543485
:1000A8006934703456343A34003453346534743413
:1000B80056343A34003441345234433400345434DE
:1000C8004F34523400340034003432342E34413446
:1000D8005234433420344F344B34203449342034A0
:1000E800003433342E3441345234433420344F34C2
:1000F8004B34203456342034003431342E345334C5
:100108006534743420345634203455342F34443410
:10011800003434342E344D34613469346E34203430
:100128005634693465347734003435342E345434D5
:100138006534733474342034563469346534773410
:1001480000342534333475342034203425343334A2
:1001580073342034003428346E3475346C346C3481
:100168002934003454346934703449343A3400340E
:1001780053346534743449343A3400344D34693472
:100188006E3456343A3400344D346134783456344D
:100198003A3400342534333475340034831203136D
:1001A800B9002F30B2003208B800C62A3C08253AF8
:1001B8000319DF28E028EC283C08B200390884003D
:1001C8003208831380000130B2003208B907C62A0A
:1001D800BA01BB01B6012E0884000A128A11152043
:1001E8000A128A110A168A117B210A128A11031C23
:1001F800FE28FF28D92983120313BA01BB01042959
:10020800831203132E0884000A128A1115200A1279
:100218008A11B200B3013B08A101A1073A08A00165
:10022800A0070A30A2000030A3000A168A11F6219E
:100238000A128A118312031332082007B400330804
:100248000318330A2107B5003408D03EBA00350830
:100258000318013EFF3EBB000130B2003208AE0772
:100268002E0884000A128A1115200A128A110A1609
:100278008A117B210A128A11031843294429042967
:10028800D929D929D929DA2A8312031338088400ED
:1002980083130008B2003208BD000130B2003208F2
:1002A800B807BD08031D59295A295F299530B2009E
:1002B8003208BD005F29BE01BF0169290130BE07B0
:1002C8000318BF0A0030BF0769293E083D078400AC
:1002D8000A128A1115200A128A110038031D75297D
:1002E8007629622977293B083F02031D7D293A08B0
:1002F8003E0203188029812988293E08BA023F084E
:10030800031CBB03BB029829BA01BB019829982991
:100318002030B2003908840032088313800001308D
:10032800B2003208B9079829FF30BA070318BB0A88
:10033800FF30BB07FF303B06031DA429FF303A06F8
:10034800031DA729A8298C29C029C0293D08840094
:100358000A128A1115200A128A11B200390884007B
:100368003208831380000130B2003208BD07013023
:10037800B2003208B907C0290130BE020030031CA0
:10038800BF03BF02FF303F06031DCC29FF303E06E6
:10039800031DCF29D029AA29C62AC62AC62AC030B1
:1003A800B2003208B604F029F02901308312031391
:1003B800AE07FF302E0784000A128A1115200A1290
:1003C8008A11BC00003A0319DA2A733A031948293A
:1003D800063A0319D329C62A38088400831300086B
:1003E800BD00840A0008BE000230B2003208B80717
:1003F800BC010314BC0D3C08053A031D042A052A58
:10040800072A2F2A2F2A3C08B2003207013E84000F
:100418000A128A1115200A128A11B3000A128A11C7
:1004280015200A128A11B40034083E02031D1E2A40
:1004380033083D020318212A222A242A2F2A2F2A88
:100448000130B2003208BC073C08053A031D2D2ACA
:100458002E2A072A2F2A3C08B200B301B21BB30385
:100468003308803AB4003B08803A3402031D3E2A20
:100478003A0832020318412A422A502A83120313E7
:100488003C08B200B301B21BB3033208BA02330806
:10049800031CBB03BB02552A83120313BA01BB0119
:1004A800552A3B083A0403195A2A5B2A752A5C2AFA
:1004B8002030B200390884003208831380000130EC
:1004C800B2003208B907FF30BA070318BB0AFF3079
:1004D800BB073B083A04031D722A732A5C2A752A53
:1004E800752A3C08B2003208B700BA2A0A30A000C0
:1004F8000030A1003708B2003207013E84000A121A
:100508008A1115200A128A11A6000A128A111520CA
:100518000A128A11A7003E08A901A9073D08A801E7
:10052800A8070A168A1118230A128A1183120313BC
:100538002708A301A3072608A201A2070A168A1101
:1005480082220A128A11831203132008303EB30054
:100558003308BC003C08B200390884003208831311
:1005680080000130B2003208B907BA2AFF30B20061
:100578003208B7073708FF3A031DC32AC42A7A2A64
:10058800C62AC62A0130AE07FF302E0784000A1299
:100598008A1115200A128A11B2003208BC00BC0860
:1005A800031DD72AD82ADA28DA2ADA2A831203136B
:1005B8003908840083138001E12A08008312031399
:1005C800C1004108033A031DEA2AEB2ACB2CE508AF
:1005D800031DEF2AF02ACB2C0A168A11ED200A12E5
:1005E8008A1100300A168A115A260A128A113930DD
:1005F80083120313C0004008A000CE300A168A11E7
:10060800AC210A128A110A128A11DF270A128A11EA
:1006180040300A168A115A260A128A113F3083126C
:100628000313C0004008A000CE300A168A11AC217E
:100638000A128A110A128A11DF270A128A11013056
:100648000A168A1192210A128A1146300A168A114C
:100658005A260A128A11B43083120313C0004008C4
:10066800AE004F08B001B0074E08AF01AF07CE305B
:100678000A128A11D2200A128A110A128A11DF2755
:100688000A128A1183120313E5010314E50DCB2C1A
:10069800CB2C0A168A11ED200A128A1100300A168C
:1006A8008A115A260A128A110B3083120313C000CA
:1006B8004008A000CE300A168A11AC210A128A110D
:1006C8000A128A11DF270A128A1140300A168A1183
:1006D8005A260A128A111C3083120313C0004008DC
:1006E800A000CE300A168A11AC210A128A110A1209
:1006F8008A11DF270A128A11E42C0A168A11ED20C2
:100708000A128A1100300A168A115A260A128A1108
:10071800393083120313C0004008A000CE300A16F7
:100728008A11AC210A128A110A128A11DF270A12C9
:100738008A11831203136608031DA32BB72B0B30F2
:100748000A168A115A260A128A1183120313660896
:100758000A128A1103270A128A110B300A168A1103
:100768005A260A128A1140300A168A115A260A1283
:100778008A113F3083120313C0004008A000CE3016
:100788000A168A11AC210A128A110A128A11DF2765
:100798000A128A1146300A168A115A260A128A1132
:1007A800B43083120313C0004008AE004F08B001F4
:1007B800B0074E08AF01AF07CE300A128A11D22017
:1007C8000A128A110A128A11DF270A128A11E42CE6
:1007D8000A168A11ED200A128A1100300A168A11A7
:1007E8005A260A128A112C3083120313C0004008BB
:1007F800A000CE300A168A11AC210A128A110A12F8
:100808008A11DF270A128A1142300A168A115A26DB
:100818000A128A1183160317200883120313C000D3
:100828004008A000CE300A168A11AC210A128A119B
:100838000A128A11DF270A128A1156300A168A11FB
:100848005A260A128A11E42C0A168A11ED200A1275
:100858008A1100300A168A115A260A128A113F3064
:1008680083120313C0004008A000CE300A168A1174
:10087800AC210A128A110A128A11DF270A128A1178
:10088800E42C0A168A11ED200A128A1100300A1681
:100898008A115A260A128A11AE3083120313C00035
:1008A8004008AE00CE300A128A11D2200A128A11EC
:1008B8000A128A11DF270A128A1140300A168A1191
:1008C8005A260A128A11A83083120313C00040085E
:1008D800AE00CE300A128A11D2200A128A110A12E8
:1008E8008A11DF270A128A11E42C0A168A11ED20D0
:1008F8000A128A1100300A168A115A260A128A1117
:10090800A23083120313C0004008AE00CE300A1292
:100918008A11D2200A128A110A128A11DF270A12B2
:100928008A11E42C0A168A11ED200A128A11003065
:100938000A168A115A260A128A11393083120313A9
:10094800C0004008A000CE300A168A11AC210A1255
:100958008A110A128A11DF270A128A1140300A16F0
:100968008A115A260A128A119C3083120313C00076
:100978004008AE00CE300A128A11D2200A128A111B
:100988000A128A11DF270A128A11E42CE42C831236
:1009980003134108003A0319282C013A0319792C4A
:1009A800033A0319452C013A0319812B073A031915
:1009B800962C013A03194D2B033A0319EC2BE42C1E
:1009C800831203134108C0004008E40008008312A2
:1009D80003136408033A031DF22CF32C8D2D063003
:1009E8000A168A115A260A128A118B3083120313A7
:1009F800C0004008AE005108B001B0075008AF0170
:100A0800AF075C08C1004108B100CE300A128A1154
:100A1800D2200A128A110A128A11DF270A128A11B1
:100A28008312031357080A128A1103270A128A111C
:100A3800831203136608031D222D362D0B300A1668
:100A48008A115A260A128A118312031366080A1297
:100A58008A1103270A128A110B300A168A115A269C
:100A68000A128A114B300A168A115A260A128A115A
:100A7800903083120313C0004008AE005B08C10029
:100A88004108AF00CE300A128A11D2200A128A1108
:100A98000A128A11DF270A128A11831203135208D5
:100AA8000A128A1103270A128A118312031357089C
:100AB800163A0319602D612D682D0F300A168A1118
:100AC8005A260A128A11782D831203135208163AED
:100AD80003196F2D702D782D4F300A168A115A265A
:100AE8000A128A11782D782D83120313D001D101AF
:100AF8001630C0004008D7001630C0004008D200A9
:100B08004D30C0004008DC004D30C0004008DB001C
:100B1800F72D6408043A031D922D932DF72D063006
:100B28000A168A115A260A128A11B430831203133C
:100B3800C0004008AE005108B001B0075008AF012E
:100B4800AF07CE300A128A11D2200A128A110A126D
:100B58008A11DF270A128A1146300A168A115A2684
:100B68000A128A11B43083120313C0004008AE0081
:100B780083160313470883120313B001B0078316C3
:100B88000313460883120313AF01AF07CE300A12CE
:100B98008A11D2200A128A110A128A11DF270A1230
:100BA8008A1110300A168A115A260A128A118312DB
:100BB8000313D001D10183160313C601C7011630F0
:100BC80083120313C0004008D7001630C000400845
:100BD800D2004D30C0004008DC004D30C000400855
:100BE800DB00F72DF72D080083160317890188010C
:100BF8008B010B30831203178500640083160313DF
:100C080005108312031305140A168A11B7200A1255
:100C18008A110A128A150A200A128A1105300A1244
:100C28008A11E2220A128A113030831203139000CB
:100C38000C100B308F00DC308E00831603130C145D
:100C480083160317A8018312031310140A168A11B6
:100C580065210A128A1183120313E0010B178B17FF
:100C68002A30C200420883160313AF00FF308312F4
:100C78000313C200420883160313B000FF30831227
:100C88000313C200420883160313B100FF30831216
:100C98000313C200420883160313B200FF30831205
:100CA8000313C200420883160313B300FF308312F4
:100CB8000313C200420883160313B400FF308312E3
:100CC8000313C200420883160313B500FF308312D2
:100CD8000313C200420883160313B600233083129D
:100CE8000313C200420883160313B7005630831259
:100CF8000313C200420883160317AA00AB0164005D
:100D0800043083120313C4000930C3003430C20016
:100D1800C20B8C2EC30B8C2EC40B8C2E932E8316D9
:100D28000317A9010314A90D003083120313A000AF
:100D38000030A1000A168A11C0200A128A11003058
:100D480083120313A0000030A1000A128A150120A3
:100D58000A128A1100300A168A1119210A128A11F8
:100D680000300A168A112B210A128A1116300A1627
:100D78008A11CE210A128A1103300A128A11E2223C
:100D88000A128A11033083120313C2004208E700D3
:100D98000A128A11EB240A128A1183160317A50175
:100DA800D52E64000A168A11C8220A128A118312E3
:100DB8000313C2004208D8000A128A15972B670845
:100DC800033A0319E82EE92EF22E6708043A031DA8
:100DD800EE2EF12E0A128A155A28F22E0630C2007B
:100DE8004208E700DA0167080A128A11E2220A12A9
:100DF8008A1183120313E3010A128A15A52B8312A1
:100E08000313A300082F082F0A168A1150220A126A
:100E18008A110038031D112F122F082F8316031370
:100E280088130813881208120A168A11A8200A12B1
:100E38008A118312031306150A168A11A8200A12AA
:100E48008A118312031386100A168A11A8200A121F
:100E58008A11831203132308A10007300310A10C81
:100E6800FF3E031D322F21080139A200A20E0808F7
:100E78002206EF39220688002308A1000630031055
:100E8800A10CFF3E031D432F21080139A200A20E29
:100E9800A20D08082206DF39220688002308A100CF
:100EA80005300310A10CFF3E031D552F2108013901
:100EB800A200A20EA20DA20D08082206BF39220622
:100EC80088002308A10004300310A10CFF3E031D75
:100ED800682F21080139A200A20CA20C08082206DA
:100EE8007F39220688000A168A11A8200A128A1158
:100EF8008312031306140A168A11A8200A128A11EB
:100F08008312031306100A168A11A8200A128A11DE
:100F1800831203132308A10003300310A10CFF3E22
:100F2800031D912F21080139A200A20E08082206EC
:100F3800EF39220688002308A10002300310A10C13
:100F4800FF3E031DA22F21080139A200A20EA20D07
:100F580008082206DF39220688002308A1000310AA
:100F6800210C0139A200A20EA20DA20D080822062A
:100F7800BF392206880023080139A100A10CA10C61
:100F8800080821067F39210688000A168A11A82038
:100F98000A128A118312031306140A168A11A8204A
:100FA8000A128A118312031306100A168A11A8203E
:100FB8000A128A110800CE3083120313A4002408F1
:100FC800A500E62F25088400831300080A128A1159
:100FD80003270A128A11013083120313A40024087C
:100FE800A5072508840083138008031DFC2FFD2F07
:080FF800E62FFE2F080005346E
:10100200831203132108CF01CF072008CE01CE0798
:10101200080083160313861183120313861102300C
:10102200A9000330A800BA30A700A70B1628A80B06
:101032001628A90B16280A168A11B6250A128A152D
:1010420083120313E50148300A168A1126270A1271
:101052008A1583120313AA0110302A02031C3228B4
:10106200332835284C284C282A08903E84008317C0
:1010720000080A128A1103270A128A150130831204
:101082000313A7002708AA0710302A02031C4A28C4
:101092004B2835284C2880300A168A1126270A1236
:1010A2008A1583160313C801C90183120313E601CB
:1010B20008006708063A031D5F286028A52BDA0896
:1010C200031D64286528E928DA010314DA0D831662
:1010D2000317AA0183120313E308031D7128722860
:1010E20078285A08033EC2004208E100AD2863088E
:1010F200013A031D7D287E288E280430C200420852
:10110200DA005A08023EC2004208E10083160317C1
:10111200AA010314AA0DAB01AD28831203136308BD
:10112200023A031D95289628A4280630C2004208D8
:10113200DA005A08063EC2004208E100831603178D
:10114200AA01AB01AD28831203136308C20042084F
:10115200E700AD28AD28AD288312031363080A12F5
:101162008A11E2220A128A158312031367086306A0
:101172000319BC28BD28A52B6108FF3EC200420806
:1011820083160317B000DC283008DE3E8400831388
:10119200000883120313C2004208A6008316031735
:1011A20030080A168A11D0230A128A1501308316D2
:1011B2000317B002DC28831203135A08831603179D
:1011C20030020318E528E628C528A52BA52BA52B58
:1011D200831203136108FF3EC200FF300318003080
:1011E200C3004308803A803C031DF92842085A0292
:1011F2000318FC28FD281229013083120313C200B0
:101202004208DA075A08DE3E840083130008C2004F
:101212004208A6005A080A168A11D0230A128A1511
:10122200A52B83120313D301831603135F088312C2
:101232000313C200C3014208A0004308A1006430A6
:10124200A2000030A3000A168A11F6210A128A159A
:10125200831203132008C4002108C5008316031358
:10126200600883120313C600C7014608A00047089E
:10127200A1000A30A2000030A3000A168A11F6214A
:101282000A128A158312031320084407C800210892
:101292000318210A4507C900831603136108831244
:1012A20003134807CA000030031801304907CB0076
:1012B2004D084B06031D5F294C084A060319622993
:1012C20063297A294B08CD01CD074A08CC01CC0706
:1012D2004D08A101A1074C08A001A0070A128A1516
:1012E20001200A128A1583120313D3010314D30DAA
:1012F2007A2983160313620883120313C200C301FF
:101302004208A0004308A1000A30A2000030A30056
:101312000A168A11F6210A128A1583160313630824
:10132200831203132007CA0000300318013021077B
:10133200CB00831603172B0883120313C200C301C9
:101342004B084306031DA7294A0842060319AA2986
:10135200AB29B7294A08C200420883160317AB001B
:1013620083120313D3010314D30DB7298316031376
:10137200640883120313C200C3014208A000430899
:10138200A1006430A2000030A3000A168A11F621DF
:101392000A128A15831203132008C4002108C5000B
:1013A20083160313650883120313C600C701460898
:1013B200A0004708A1000A30A2000030A3000A16CC
:1013C2008A11F6210A128A15831203132008440790
:1013D200C80021080318210A4507C9008316031310
:1013E2006608831203134807CA000030031801304D
:1013F2004907CB00831603172D08831203134B06EC
:10140200031D092A831603172C08831203134A06A5
:1014120003190C2A0D2A1F2A4B0883160317AD0144
:10142200AD07831203134A0883160317AC01AC07F6
:1014320083120313D3010314D30D1F2A831603133C
:10144200670883120313C200C3014208A0004308C5
:10145200A1006430A2000030A3000A168A11F6210E
:101462000A128A15831203132008C4002108C5003A
:1014720083160313680883120313C600C7014608C4
:10148200A0004708A1000A30A2000030A3000A16FB
:101492008A11F6210A128A158312031320084407BF
:1014A200C80021080318210A4507C900831603133F
:1014B2006908831203134807CA0000300318013079
:1014C2004907CB00831603172F08831203134B0619
:1014D200031D712A831603172E08831203134A066B
:1014E2000319742A752A862A4B0883160317AF013B
:1014F200AF07831203134A0883160317AE01AE0720
:1015020083120313D3010314D30D5308031D8A2A34
:10151200E32A831603172A080A168A113D210A12A2
:101522008A15831203134D08C2004208831603135F
:10153200B000831203134C08C2004208831603133F
:10154200B100831603172A0883120313C200063060
:101552000310C20DFF3E031DA92A0310420D83167C
:1015620003172B0483120313C300430883160313C8
:10157200B200831603172D0883120313C200420818
:1015820083160313B300831603172C088312031365
:10159200C200420883160313B400831603172F08F0
:1015A20083120313C200420883160313B500831685
:1015B20003172E0883120313C20042088316031373
:1015C200B600E32A03308312C2004208E70067082C
:1015D2000A128A11E2220A128A15A52BA52BA52B23
:1015E200A52BA52B831203136708063A031DFA2ABB
:1015F200FB2AA52B5A08031DFF2A242B5A08DE3E7C
:1016020084000930831300020318082B092B112BC5
:101612000130C2005A08DE3E840042088007162BC1
:101622005A08DE3E84008001162B5A08DE3E8400F2
:101632000008C2004208A6005A080A168A11D023DE
:101642000A128A15A52B831203136308031D2A2B82
:101652002D2B0130E302322B0430C2004208E3009A
:10166200322B6308C2004208A600FF300A168A1114
:10167200D0230A128A15A52BA52BA52B831203139F
:101682006708063A031D462B472BA52B5A08031D54
:101692004B2B702B5A08DE3E8400831380080319FB
:1016A200532B542B5A2B5A08DE3E84000130800201
:1016B200622B0930C2005A08DE3E840042088000D4
:1016C200622B5A08DE3E84000008C2004208A600CF
:1016D2005A080A168A11D0230A128A15A52B043039
:1016E2008312031363020318772B782B7D2B0130AF
:1016F200C2004208E3077F2BE3017F2B6308C2008D
:101702004208A600FF300A168A11D0230A128A154F
:10171200A52BA52BA52B05188F2B902B922B0514EF
:10172200A52B0510A52BA52BA52BA52B5808013AF7
:101732000319F32A033A03193F2B013A0319FD2F28
:10174200073A03198C2BA52B831203135508031D8B
:10175200AB2BCC2BD501013083160313BE07031824
:10176200BF0A0030BF07C8303E063F04031DBA2B34
:10177200BB2BCC2B00300A168A1133250A128A158C
:101782000A128A11EB240A128A1583160313BE0168
:10179200BF01CC2BCC2B83125608031DD12BF62F65
:1017A200D6018316031320082A3A031DD92BDA2BFC
:1017B2004B2C220883120313C200C30183160313A6
:1017C200210883120313C400C5014408C500C401E3
:1017D20042084404CA0043084504CB0003304B02CC
:1017E200E83003194A020318F72BF82B042C4B0894
:1017F200A101A1074A08A001A0070A168A11C02068
:101802000A128A15042C8316031325088312031364
:10181200C200C30183160313240883120313C400F6
:10182200C5014408C500C40142084404CA00430873
:101832004504CB0003304B02E83003194A02031877
:10184200232C242C2F2C4B08A101A1074A08A0010C
:10185200A0070A168A11F9200A128A1583160313A1
:10186200230880390A168A1119210A128A15831649
:101872000313230840390A168A112B210A128A15EA
:101882008316031323083F390A168A11CE210A123E
:101892008A15972F8316031320083E3A031D522CF4
:1018A200532C972F83160317A501B0010314B00D13
:1018B20008303002031C5E2C5F2C612C8B2C8B2C8D
:1018C2003008AF3E84008313000883120313C20062
:1018D200831603173008A03E840000088312031306
:1018E20042060319752C762C7C2C83160317A5014E
:1018F2000314A50D8B2C013083120313C20042087E
:1019020083160317B00708303002031C892C8A2C77
:10191200612C8B2C2908031D8F2C972F8316031300
:10192200220883120313C200C30183160313210882
:1019320083120313C400C5014408C500C401420850
:101942004404CA0043084504CB0003304B02E8308C
:1019520003194A020318AE2CAF2C442D4B08CD01BB
:10196200CD074A08CC01CC074D08A101A1074C08BC
:10197200A001A0070A128A1501200A128A156430F2
:1019820083120313A6000030A7004D08A901A9077E
:101992004C08A801A8070A168A1118230A128A15E8
:1019A200831203132608C200420883160313DF00C2
:1019B2000A3083120313A6000030A7004D08A301CA
:1019C200A3074C08A201A2076430A0000030A100C6
:1019D2000A168A1182220A128A1583120313210817
:1019E200A901A9072008A801A8070A168A11182325
:1019F2000A128A15831203132608C20042088316AC
:101A02000313E000831203134D08A301A3074C083C
:101A1200A201A2076430A0000030A1000A168A11B8
:101A220082220A128A1583120313210883160317CE
:101A3200A701A70783120313200883160317A60121
:101A4200A6070A3083120313A0000030A1008316F8
:101A52000317270883120313A301A307831603178F
:101A6200260883120313A201A2070A168A118222F0
:101A72000A128A15831203132008C2004208831631
:101A82000313E100442D8316031323087F398312C5
:101A92000313C200420883160317B00064303002F9
:101AA2000318542D552DB22D300883120313C20092
:101AB200420883160317AB0083160313230883120D
:101AC2000313C20007300310C20CFF3E031D642D36
:101AD2004208C300430883160317AA002A080A16FD
:101AE2008A113D210A128A150A3083120313A000BB
:101AF2000030A100831603172B0883120313C200C0
:101B0200C3014208A2004308A3000A168A11422414
:101B12000A128A15831203132008C400440883168C
:101B22000313E2000A3083120313A0000030A10065
:101B3200831603172B0883120313C200C301420842
:101B4200A2004308A3000A168A1168230A128A1502
:101B5200831203132008C400440883160313E3000E
:101B6200B22D0313250883120313C200C301831687
:101B72000313240883120313C400C5014408C500DB
:101B8200C40142084404CA0043084504CB000330A0
:101B92004B02E83003194A020318D02DD12D772EBB
:101BA2004B0883160317AD01AD07831203134A08CE
:101BB20083160317AC01AC07643083120313A6002B
:101BC2000030A700831603172D0883120313A901FF
:101BD200A907831603172C0883120313A801A80769
:101BE2000A168A1118230A128A1583120313260869
:101BF200C200420883160313E4000A30831203135F
:101C0200A6000030A700831603172D0883120313C2
:101C1200A301A307831603172C0883120313A2013F
:101C2200A2076430A0000030A1000A168A118222A5
:101C32000A128A15831203132108A901A907200891
:101C4200A801A8070A168A1118230A128A158312F4
:101C520003132608C200420883160313E500831605
:101C620003172D0883120313A301A3078316031777
:101C72002C0883120313A201A2076430A0000030D3
:101C8200A1000A168A1182220A128A1583120313EC
:101C9200210883160317A701A7078312031320083D
:101CA20083160317A601A6070A3083120313A000A6
:101CB2000030A10083160317270883120313A30120
:101CC200A30783160317260883120313A201A20790
:101CD2000A168A1182220A128A1583120313200815
:101CE200C200420883160313E600772E83160313FD
:101CF200270883120313C200C301831603132608A5
:101D020083120313C400C5014408C500C40142087C
:101D12004404CA0043084504CB0003304B02E830B8
:101D220003194A020318962E972E3D2F4B0883164D
:101D32000317AF01AF07831203134A088316031771
:101D4200AE01AE07643083120313A6000030A70071
:101D5200831603172F0883120313A901A9078316F9
:101D620003172E0883120313A801A8070A168A1163
:101D720018230A128A15831203132608C200420886
:101D820083160313E7000A3083120313A600003000
:101D9200A700831603172F0883120313A301A307B7
:101DA200831603172E0883120313A201A2076430BD
:101DB200A0000030A1000A168A1182220A128A1596
:101DC200831203132108A901A9072008A801A80763
:101DD2000A168A1118230A128A1583120313260877
:101DE200C200420883160313E800831603172F0864
:101DF20083120313A301A307831603172E0883126A
:101E02000313A201A2076430A0000030A1000A1649
:101E12008A1182220A128A15831203132108831659
:101E22000317A701A70783120313200883160317BA
:101E3200A601A6070A3083120313A0000030A100F6
:101E420083160317270883120313A301A30783161C
:101E52000317260883120313A201A2070A168A1186
:101E620082220A128A15831203132008C200420832
:101E720083160313E9003D2F83124D08C200420866
:101E820083160313B000831203134C08C2004208E6
:101E920083160313B100831603172A088312031350
:101EA200C20006300310C20DFF3E031D532F031064
:101EB200420D831603172B0483120313C300430836
:101EC20083160313B200831603172D08831203131C
:101ED200C200420883160313B300831603172C08AB
:101EE20083120313C200420883160313B40083163D
:101EF20003172F0883120313C20042088316031329
:101F0200B500831603172E0883120313C20042087A
:101F120083160313B600013083120313C200420872
:101F220083160317A907972F972F972F8316031747
:101F32002908033A031D9E2F9F2FB52F2A080A1640
:101F42008A113D210A128A1503300A128A11E222ED
:101F52000A128A15033083120313C2004208E700F3
:101F620083160317A901B52F640083160317A5086A
:101F7200031DBC2FBD2FC82FA908031DC12FC22FBF
:101F8200C82F831203135308031DC82FF02F831683
:101F92000317A80109302802031CD02FD12FD32FF9
:101FA200EB2FEB2F2808AF3E8400831300080A169C
:101FB2008A11C9200A128A15013083120313C20042
:101FC200420883160317A80709302802031CEA2FC8
:101FD200EB2FD32FA50183120313D301F02F0A1283
:101FE2008A11EB240A128A15F62F0A128A11D52EAB
:0E1FF200F62F0A128A1112280A128A11E32E03
:102150000D3083120313A000A00BAC28080064000C
:102160008001840A0406031900340406B02883168B
:1021700003138815081488140815F001F3010800EA
:10218000831203132108D101D1072008D001D00701
:10219000080083120313A000CD280C1ED028D128DC
:1021A000CD28D22820089900080068308312031334
:1021B000A100E430A000A00BDB28A10BDB28640009
:1021C0000800063083120313A1003030A000A00BDA
:1021D000E728A10BE7286400080001300A168A11DD
:1021E00026270A168A110A168A11E1200A168A1170
:1021F000080083120313210883160313C701C707BE
:1022000083120313200883160313C601C6070800B0
:102210007E088A007F08820008210A168A11800041
:10222000840A04087D0603190034FF0A0319FE0A14
:102230000C2983120313A1002108031D202925293D
:102240004930A0002008DC002A294D30A0002008D9
:10225000DC002A29080083120313A1002108031DB2
:10226000322937294530A0002008DB003C294D30B9
:10227000A0002008DB003C29080083120313A10002
:10228000A108031D442945294A295630A0002008E9
:10229000E6004F294930A0002008E6004F29080039
:1022A00004340E3415340434043404340434043453
:1022B0000434043404340434043415340E34043443
:1022C00067344F345B3473347F34831603138717BA
:1022D00007139A013330990090308312031398004A
:1022E0002430831603139800831203138C12831671
:1022F00003138C16080083120313A100A0013A30C7
:1023000021020318842985298F2930302102031CDA
:102310008A298B298F29A0010314A00D8F29200C55
:102320009129080083120313A4002408031D99298E
:10233000A0290E300A168A1126270A168A11A62904
:102340000C300A168A1126270A168A110A168A11D3
:10235000E1200A168A11080083120313A200220842
:10236000A1002108A300B529B5290130A007FF303D
:10237000200784000A128A1115200A168A11A1006A
:10238000230884000130A3072108831380008008FC
:10239000031DCB29CC29B529CD29080083120313AD
:1023A000A1001630A0002008D7001630A000200899
:1023B000D2006408033A031DDE29DF29F52921082C
:1023C000013A031DE429E529E929D7010314D70DB2
:1023D000E9292108023A031DEE29EF29F5290230E7
:1023E000A0002008D200F529F52908008312031364
:1023F000A401A501FB29201CFE29FF29052A22088A
:10240000A4070318A50A2308A50701300310A20D8D
:10241000A30DFF3E031D062A01300310A10CA00CE2
:10242000FF3E031D0D2A21082004031D182A192A26
:10243000FB291A2A2508A101A1072408A001A00749
:10244000212A0800F001F101F201F301F4018313E4
:102450004A30840067300A168A11AF200A168A11A2
:10246000A0308400ED300A168A11AF200A168A11B6
:102470008317A530FD001130FE005030FF00903072
:1024800084000A168A110C210A168A110A128A116E
:10249000FF270A168A11E70083010A128A11F82D14
:1024A0008316031388170817881608168312031358
:1024B000861406110A168A11A8200A168A11831298
:1024C000031306140A168A11A8200A168A1100306E
:1024D00083120313081A0130F40006100A168A1139
:1024E000A8200A168A118312031306140A168A11E9
:1024F000A8200A168A118312031306108610740886
:10250000812A080083120313210820040319892A51
:102510008A2AC02AA5010314A50D9A2A01300310A6
:10252000A00DA10DFF3E031D8F2A0130A400240839
:10253000A5079A2AA11F9D2A9E2A8E2AA02AA02A90
:1025400021082302031DA62A20082202031CA92A0F
:10255000AA2AB12A2008A2022108031CA303A3026D
:10256000B12A01300310A10CA00CFF3E031DB22ABA
:102570000130A502031DBD2ABE2AA02AC02AC02AF6
:102580002308A101A1072208A001A007C72A08006B
:1025900083120313A1010819CE2ACF2AD42A0330AB
:1025A000A0002008A100F02A0818D72AD82ADC2A7F
:1025B000A1010314A10DF02A8818DF2AE02AE52AD8
:1025C0000230A0002008A100F02A8819E82AE92A90
:1025D000F02A0430A0002008A100F02AF02AF02AF6
:1025E0002108031DF42A132B730821060319F92A65
:1025F000FA2AFF2AF0012108A0002008F300700841
:10260000283A0319042B052B072BA101072B29308E
:10261000700203180C2B0D2B152B0130A000200885
:10262000F007152B152BF001152B2108172B08008F
:1026300083120313AC01AD01270826040319212BD3
:10264000222B602BAB010314AB0D322B0130031096
:10265000A60DA70DFF3E031D272B0130AA002A0857
:10266000AB07322BA71F352B362B262B382B382BBD
:1026700001300310AC0DAD0DFF3E031D392B2708B3
:102680002902031D452B26082802031C482B492B31
:10269000512B2608A8022708031CA903A9022C1401
:1026A000512B01300310A70CA60CFF3E031D522B2B
:1026B0000130AB02031D5D2B5E2B382B602B602B92
:1026C0002D08A701A7072C08A601A607672B08005D
:1026D00083120313A601A31F6E2B6F2B782BA20965
:1026E000A309A20A0319A30AA6010314A60D782BB5
:1026F000A11F7B2B7C2B822BA009A109A00A031907
:10270000A10A822B210820040319872B882BBE2BBA
:10271000A5010314A50D982B01300310A00DA10DE8
:10272000FF3E031D8D2B0130A4002408A507982B24
:10273000A11F9B2B9C2B8C2B9E2B9E2B21082302B5
:10274000031DA42B20082202031CA72BA82BAF2BB0
:102750002008A2022108031CA303A302AF2B01300F
:102760000310A10CA00CFF3E031DB02B0130A502ED
:10277000031DBB2BBC2B9E2BBE2BBE2B2608031D83
:10278000C22BC82BA209A309A20A0319A30AC82BAA
:102790002308A101A1072208A001A007CF2B080050
:1027A00083120313A8002808FF3A0319D82BD92B4A
:1027B0001F2C093028020318DE2BDF2BF72B0630E5
:1027C0002802031CE42BE52BE82B0530A802F12B93
:1027D00004302802031CED2BEE2BF12B0230A80253
:1027E000F12B2808053EA7002708A800FD2B280884
:1027F0003D3EA7002708A800FD2B28080A168A11CD
:102800005A260A168A110A30831203132602031865
:102810000A2C0B2C102C3030A7002708A607102CF0
:1028200026080A128A1103270A168A118312031333
:1028300028080A168A115A260A168A11412C831270
:1028400003132608A03E840083170008A70027086A
:10285000A000CE300A168A11AC210A168A11423025
:102860000A168A115A260A168A110A128A11DF27B5
:102870000A168A1156300A168A115A260A168A1121
:10288000412C080083120313A601A11F482C492CD8
:10289000522CA009A109A00A0319A10AA601031438
:1028A000A60D522CA31F552C562C602CA209A3094F
:1028B000A20A0319A30A0130A4002408A606602C6A
:1028C000A701A801210820040319672C682CA62C55
:1028D000A5010314A50D782C01300310A00DA10D46
:1028E000FF3E031D6D2C0130A4002408A507782CA1
:1028F000A11F7B2C7C2C6C2C7E2C7E2C0130031099
:10290000A70DA80DFF3E031D7F2C21082302031DE8
:102910008B2C20082202031C8E2C8F2C972C200835
:10292000A2022108031CA303A3022714972C013041
:102930000310A10CA00CFF3E031D982C0130A50232
:10294000031DA32CA42C7E2CA62CA62C2608031D2C
:10295000AA2CB02CA709A809A70A0319A80AB02C09
:102960002808A101A1072708A001A007B72C08008B
:102970000C1CBB2CBC2CCD2C831603130C1CC12CA3
:10298000C22CCD2C831203130C100B308F00DC30C3
:102990008E00D5010314D50DCD2C83128C1ED12CA5
:1029A000D22C272D831603138C1ED72CD82C272D21
:1029B000831203138C121A08F5007508F2007208CE
:1029C0002A3A0319E42CE52CEC2C72083E3A031D3C
:1029D000EA2CEB2CF62CEC2C7208F500750883160B
:1029E0000313A000F1010314F10D272D7208233AFF
:1029F000031DFB2CFC2C0B2D7108F50075088312B0
:102A0000E0007108A03E840083138001F101D6012B
:102A10000314D60D272D7108031D0F2D222D0F3005
:102A200071020318142D152D222D7208F50071085E
:102A3000A03E84007508831380000130F5007508FE
:102A4000F107272DF101272D272D272D272D790877
:102A50008312FF0078088A0077088400760E8300CE
:102A6000FE0E7E0E090083120313C100C108031D70
:102A70003A2D3B2DB52D6408033A031D402D412D01
:102A8000B52D0A168A11ED200A168A1100300A1691
:102A90008A115A260A168A11393083120313C0008C
:102AA0004008A000CE300A168A11AC210A168A11FD
:102AB0000A128A11DF270A168A1183120313660885
:102AC000031D632D772D0B300A168A115A260A161C
:102AD0008A118312031366080A128A1103270A1641
:102AE0008A110B300A168A115A260A168A114030AA
:102AF0000A168A115A260A168A113F3083120313C6
:102B0000C0004008A000CE300A168A11AC210A1677
:102B10008A110A128A11DF270A168A1101300A1651
:102B20008A1192210A168A1146300A168A115A26EB
:102B30000A168A11B43083120313C0004008AE0095
:102B40004F08B001B0074E08AF01AF07CE300A12F0
:102B50008A11D2200A168A110A128A11DF270A1650
:102B60008A11B52DB52DB52DB52D08008316031787
:102B7000890183160313881308138812081206119B
:102B800086100610831203130611861006100230F9
:102B9000A6000330A500BA30A400A40BCD2DA50BD0
:102BA000CD2DA60BCD2D831203138817081788127D
:102BB00008120611861006100A168A11D5200A1668
:102BC0008A110A168A11D5200A168A118312031354
:102BD00088170817881208120611861006140A169C
:102BE0008A11A8200A168A118312031306100A16E6
:102BF0008A11E1200A168A110A168A11E1200A16A2
:102C00008A110A168A11E1200A168A118312031307
:102C100088170817881208120611861006140A165B
:102C20008A11A8200A168A118312031306100A16A5
:102C30008A11E1200A168A118316031388170817D0
:102C4000881608160A168A11A8200A168A11323028
:102C50000A168A1126270A168A110A168A11E120F5
:102C60000A168A1128300A168A1126270A168A118E
:102C70000A168A11E1200A168A110C300A168A11E6
:102C800026270A168A110A168A11E1200A168A11C5
:102C900006300A168A1126270A168A110A168A1180
:102CA000E1200A168A1101300A168A1126270A160F
:102CB0008A11080083120313A3005F2E5F2E0A16E9
:102CC0008A1150220A168A110038031D682E692EB7
:102CD0005F2E8316031388130813881208120A162E
:102CE0008A11A8200A168A118312031306110A16E4
:102CF0008A11A8200A168A118312031386100A1655
:102D00008A11A8200A168A118312031308162308B1
:102D1000A10006300310A10CFF3E031D8A2E2108DE
:102D20000139A200A20EA20D08082206DF392206F0
:102D300088002308A10005300310A10CFF3E031DED
:102D40009C2E21080139A200A20EA20DA20D080896
:102D50002206BF39220688002308A1000430031090
:102D6000A10CFF3E031DAF2E21080139A200A20CC9
:102D7000A20C080822067F39220688000A168A114A
:102D8000A8200A168A118312031306140A168A1140
:102D9000A8200A168A118312031306100A168A1134
:102DA000A8200A168A11831203132308A1000330F6
:102DB0000310A10CFF3E031DD82E21080139A200EB
:102DC000A20E08082206EF39220688002308A10077
:102DD00002300310A10CFF3E031DE92E210801392A
:102DE000A200A20EA20D08082206DF3922068800E2
:102DF0002308A1000310210C0139A200A20EA20D8C
:102E0000A20D08082206BF392206880023080139CE
:102E1000A100A10CA10C080821067F392106880019
:102E20000A168A11A8200A168A118312031306149F
:102E30000A168A11A8200A168A1183120313061093
:102E40000A168A11A8200A168A1108008312031391
:102E5000A3002B2F2B2F0A168A1150220A168A1133
:102E60000038031D342F352F2B2F8316031388139F
:102E70000813881208120A168A11A8200A168A1145
:102E80008312031306110A168A11A8200A168A1142
:102E90008312031386100A168A11A8200A168A11B3
:102EA000831203132308A10007300310A10CFF3E77
:102EB000031D552F21080139A200A20E0808220681
:102EC000EF39220688002308A10006300310A10C68
:102ED000FF3E031D662F21080139A200A20EA20D9C
:102EE00008082206DF39220688002308A1000530E1
:102EF0000310A10CFF3E031D782F21080139A20009
:102F0000A20EA20DA20D08082206BF3922068800D3
:102F10002308A10004300310A10CFF3E031D8B2FDA
:102F200021080139A200A20CA20C080822067F3950
:102F3000220688000A168A11A8200A168A110A1683
:102F40008A11A8200A168A118312031306140A167E
:102F50008A11A8200A168A11831203130610230867
:102F6000A10003300310A10CFF3E031DB22F210866
:102F70000139A200A20E08082206EF3922068800B5
:102F80002308A10002300310A10CFF3E031DC32F34
:102F900021080139A200A20EA20D08082206DF397D
:102FA000220688002308A1000310210C0139A20089
:102FB000A20EA20DA20D08082206BF392206880023
:102FC00023080139A100A10CA10C080821067F39B2
:102FD000210688000A168A11A8200A168A1183126F
:102FE000031306140A168A11A8200A168A118312DE
:102FF000031306100A168A11A8200A168A1108005F
:04400E00EAE0FFFFE6
:00000001FF
