:020000040000FA
:06000000B4EF14F0120041
:020006001200E6
:060008001FEF06F01200DC
:02000E000100EF
:0C001000DC290000000100004700000097
:04001C004AEC05F0B5
:10002000FB0EDBCFF3FFDB06F35000090AE098EC90
:1000300005F0FA0E03EC06F0F3E1151CF1E1010EF8
:1000400001D0000E79EF05F04AEC05F03B0EE124FB
:1000500002E3E168E652E16E010EDB6A020EDB6A42
:10006000F90EDBCFF6FFFA0EDBCFF7FFFB0EDBCF8F
:10007000F8FF0800F550DF6EDF5002E19DEF04F05D
:10008000250EDF5C02E090EF04F0030EDB6A040E45
:10009000DB6A050EDB6A060EDB6A070EDB6AB2EC72
:1000A00004F02D0EDF5C0CE02B0EDF5C09E0200E6F
:1000B000DF5C06E0230EDF5C03E0300EDF5C1AE15C
:1000C000DF50300A14E0130A0FE0030A0AE00B0ABB
:1000D00005E0060AE4E1030EDB80E1D7030EDB82D4
:1000E000DED7030EDB84DBD7030EDB86D8D7030E07
:1000F000DB88D5D72A0EDF5C1BE1AEEC04F0FCEC0C
:1001000004F010E0030EDB8006680768130EDBCFF7
:100110000BF0140EDBCF0CF0EAEC0DF0040E04C073
:10012000DBFF03D0130EE5EC04F0B2EC04F00BD0CF
:10013000090EDB6A53EC05F003E0C7EC05F0FAD7D3
:10014000090EE5EC04F0030EDBB0DB982E0EDF5C4D
:100150001BE1B2EC04F02A0EDF5C0BE1AEEC04F024
:10016000FCEC04F003E1130E37EC05F0B2EC04F004
:100170000BD0090EDB6A53EC05F003E0C7EC05F089
:10018000FAD7090E37EC05F0680EDF5C07E1B2EC38
:1001900004F0680EDF5C1DE1030E18D0740EDF5C06
:1001A00017E07A0EDF5C14E0480EDF5C06E0540EC8
:1001B000DF5C03E05A0EDF5C02E1020E07D06C0E3A
:1001C000DF5C03E06A0EDF5C04E1010E8AEC05F0FF
:1001D000C9DBDF506E0A01E17FD31E0A01E192D133
:1001E000200A01E18FD13F0A01E149D11A0A01E158
:1001F00046D10D0A01E143D1200A01E140D13A0A7A
:1002000001E13DD1200A01E13AD1260A01E135D1CF
:100210000D0A01E132D11A0A01E1D9D0200A4AE0DF
:10022000300A1FE0460A0EE0250A01E083D3D950C8
:10023000F90FE96EFF0EDA20EA6E010EEE5E000E97
:10024000EE5AEE5A98EC05F0250EE66E95DB03E1CA
:10025000151C01E169D394EC05F001E26BD3DB2AB4
:1002600069D3080EDB6A040EDB50010806E2040EB7
:10027000DB045CEC05F0DB508BDB080EDB5009E0A7
:10028000030EDB50010B05E172DB01E04DD3080EDC
:10029000DB6A64DBEFCFDFFF0CEC06F003E1151C3B
:1002A00001E142D394EC05F001E3DB2A60DB01E1DC
:1002B00041D33AD3070EDB5002080FE1D8EC05F02A
:1002C000030E9FEC05F00E0EEECFDBFF0F0EEECF10
:1002D000DBFF100EEECFDBFF20D0F70EDBCF17F0E9
:1002E000F80EDBCF18F0020E175E000E185AF70E4C
:1002F00017C0DBFFF80E18C0DBFF17C0E9FF18C0FE
:10030000EAFF8FEC05F0166A0E0E14C0DBFF0F0E2D
:1003100015C0DBFF100E16C0DBFF0E0EDBCFE6FFB5
:100320000F0EDBCFE6FF100EDBCFE6FF7CEC12F00A
:10033000E552E552E552130E05C0DBFF140E06C070
:10034000DBFF060EDB5005E0130ED3EC05F001E2F7
:100350006ADBF7EC05F002E2130E37DBBAEC05F0CE
:1003600006E0040ED3EC05F002E2050E2EDB030ED0
:10037000DBB005D0FCDA01E0D7D2080EDB6A090E4B
:10038000DB6A0E0EDBCFF6FF0F0EDBCFF7FF100E92
:10039000DBCFF8FF0800F550DF6EDF5014E0FDEC16
:1003A00005F011E20CEC06F003E1151C01E1BCD2F2
:1003B000BBDB01E3DB2A090EDB2AD9500E0FE96E05
:1003C000000ECBDBE7D7D3DA01E1B4D2ADD2C6DA87
:1003D000110EEECFDBFF120EEDCFDBFF110EDBCFE8
:1003E000E6FF120EDBCFE6FF6EEC12F0E552E552AF
:1003F000130EF3CFDBFF140EF4CFDBFF060EDB5042
:1004000004E0130ED0DB01E20EDBF7EC05F002E2B4
:10041000130EDBDAAFDB05E0040EC5DB02E2050EEE
:10042000D4DA030EDBB005D0A2DA01E07DD2080EEB
:10043000DB6A090EDB6A110EDBCFE9FF120EDBCFA0
:10044000EAFFEFCFDFFFDF5014E0D7DB12E2E4DB9F
:1004500003E1151C01E168D267DB01E3DB2A090E29
:10046000DB2A110EDB2ADBCFE9FF120EE8E3DB2AE1
:10047000E6D77DDA01E15ED257D2030EDB8E070E9E
:10048000DB0410E195DB040E5ADB0A0EEECFDBFF36
:100490000B0EEECFDBFF0C0EEECFDBFF0D0EEECF23
:1004A000DBFF6CD0070EDB5003082CE1030EDBAE44
:1004B0000DD0B2DA020E76DAEFCF14F0156A166AB2
:1004C000176A14AE39D01568166835D0F70EDBCF31
:1004D00015F0F80EDBCF16F0020E155E000E165A60
:1004E000F70E15C0DBFFF80E16C0DBFF15C0E9FFE5
:1004F00016C0EAFFEFCF14F00A0E14C0DBFF0B0E9C
:10050000DB6A38D0070EDB50020809E1030EDBAED0
:1005100004D059DB16AE10D00ED055DB0DD0030E33
:10052000DBAE12D079DA020E3DDAF9DA166A176A12
:1005300015AE02D016681768E2DA0C0E16C0DBFFA3
:100540000D0E17C0DBFF1AD0F70EDBCF16F0F80E3A
:10055000DBCF17F0020E165E000E175AF70E16C00C
:10056000DBFFF80E17C0DBFF16C0E9FF17C0EAFF7C
:10057000D6DAC5DA0C0EDB6A0D0EDB6A060EDB502E
:1005800005E1010EF36E050EF3CFDBFF150EDB6AFE
:10059000160EDB6AD950370F146E000EDA20156E76
:1005A000390E14C0DBFF3A0E15C0DBFF380EDB6AD4
:1005B000080EDB6A0A0EAEDADF50780A12E0200A73
:1005C00010E0280A0CE0200A0AE03F0A06E00D0AC3
:1005D00002E0200A08E1020E05D0080E03D0080E42
:1005E000DF26100E97DA030EDBBE02D0DB92DB941F
:1005F000DB50800B24E08ADAD890030EEB50000A1F
:1006000008E6000EEE5C000EEE58000EEE58000EEE
:10061000EE5815E213DA09680A680B680C6877EC83
:1006200013F00A0E00C0DBFF0B0E01C0DBFF0C0E47
:1006300002C0DBFF0D0E03C0DBFF2D0E08D0030E42
:10064000DBA202D02B0E03D0DBA408D0200EF36E69
:10065000170EF3CFDBFF150EDB2A02D0170EDB6A75
:10066000050EDB5003E1B7D901E189D0C90E146E44
:10067000290E156E000E166E070EDBCF17F0186AE6
:10068000196A1A6A17C009F018C00AF019C00BF0ED
:100690001AC00CF0D3D9D6EC13F014500024F36E2A
:1006A00015500120F46E16500220F86EF4CFF7FFBB
:1006B000F3CFF6FF0800090EF5CFDBFF580EDF5C25
:1006C0000FE1610EF36E090E7BD90AE3200E146E62
:1006D000090EDBCFE7FF1450E75E090EE7CFDBFF23
:1006E000070EDBCF14F0156A166A176A0FDA14C00A
:1006F00009F015C00AF016C00BF017C00CF0EECFD1
:1007000004F0EECF05F0EECF06F0EFCF07F0D6EC19
:1007100013F007C0EDFF06C0EDFF05C0EDFF04C0FC
:10072000EFFF390EDBCFE9FFDB063A0EDBCFEAFF46
:1007300001E2DB06090EDBCFEFFF150EDB2A4BD9FA
:1007400095E1030EDBA61DD06F0EDF5C06E1C1D97B
:1007500018E3150EDB285BDA14D0780EDF5C09E0B5
:10076000580EDF5C06E0620EDF5C03E0420EDF5CE9
:1007700008E1020EF36E160EF3CFDBFF02D0150E6A
:10078000DB6A030EDB50100B0EE0040EDBCF14F01F
:10079000050EDB50D880145406E2060EDB5003E150
:1007A000040EDB5034DA95D90AE2050EDBCFE7FF01
:1007B000150EDB50E75E050EE7CFDBFF02D0050E1E
:1007C000DB6A040EDBCF14F0160E45D9D880145422
:1007D00014E2160EDBCFE6FF150EDBCFE6FF040EAC
:1007E000DBCFE6FF050EDB50E552E75CE552D88033
:1007F000E754E552D880E7545FD9030EDB50010B74
:100800000BE1080EDB5008E0B2D801E08DD0080EF5
:10081000DB50BED8080EDB6A170EDB5007E088D924
:10082000170EF1D903E1151C01E17ED0160EDB5045
:1008300016E07ED9300EE66E9FD802E1151C74E0FA
:1008400077D9DFCFE6FF35EC13F0E552E552E552FC
:10085000F4CF15F00001F31C02E1151C65E0050E54
:10086000DBCF14F0160EDB50D880145409E2050ECD
:10087000DBCFE7FF160EDB50E75E050EE7CFDBFFB1
:10088000300EE66E050ECBD94FE1390EDB2ADBCFF9
:10089000E9FF3A0E01E3DB2ADBCFEAFF090EEFCFD7
:1008A000DBFFDB500EE044D9090EADD902E1151C87
:1008B0003BE0390EDB2ADBCFE9FF3A0EEDE3DB2A22
:1008C000EBD755D831E1160EDBCFE6FF080EC3D8C3
:1008D000E552E7245DD82ED0070EDB50030A1CE05A
:1008E000010A14E0030A07E07BD9DBCFEEFF020E1A
:1008F000DBCFEDFF1FD0F5D8196A17AE02D018680C
:1009000019682CD8BCD819C0EEFF14D0EAD817BE8D
:10091000186824D8B4D80ED063D9DBCFEFFF0AD043
:100920007BD905E1151C03E1F368F46810D0FCD80D
:1009300001E3DB2A79D939EF00F0010EDBCF14F0A7
:10094000020EDBCF15F014C0F3FF15C0F4FF3B0E11
:10095000E15C02E2E16AE552E16ECBD029D9020EF8
:100960009FEF05F061D90800F550DF6E1200200EF0
:10097000E66E080E0FEF06F035EC13F0E552E55287
:10098000E552F3CF14F0F4CF15F00001F31C120080
:10099000146E156AD950010F4DD91450EE2615501A
:1009A000ED221200185E000E195AF70E18C0DBFF78
:1009B000F80E19C0DBFF18C0E9FF19C0EAFF1200EA
:1009C000DBCFF4FFF350F45C1200DB50E76E040E53
:1009D000E7CFDBFF12000A0EDBCF14F00B0EDBCFEC
:1009E00015F00C0EDBCF16F00D0EDBCF17F0145008
:1009F0001510161017101200130EEECFDBFF140E99
:100A0000EDCFDBFF130EDBCF14F0140EDBCF15F0B0
:100A10000001800E15141200F70EDBCF18F0F80E4F
:100A2000DBCF19F01200050EDB50E66ED950130F24
:100A300001D9E552E750EE6EED6A12000A0EDBCFE7
:100A400004F00B0EDBCF05F00C0EDBCF06F00D0E25
:100A5000DBCF07F01200DBCFE6FF150EDBCFE6FFA2
:100A6000050EDB50E552E724E552E7241200DB5087
:100A7000CED8010EF36E060EF3CFDBFF1200EE5060
:100A8000EFCFEAFFE96E16C0EEFF17C0EEFF18C009
:100A9000EEFF1200D9CFE6FFDACFE6FFE1CFD9FFB4
:100AA000E2CFDAFF1200DFCFE6FFE66A82EC14F055
:100AB000E552E552F3501200E76E080EE7CFDBFF78
:100AC0001200EECF14F0EECF15F0EFCF16F0176A4C
:100AD0001200050EDBCF14F0150EDB50D880145435
:100AE0001200010EDBCF16F0020EDBCF17F0186AF2
:100AF0001200E552E5CFDAFFE7CFD9FF12000A0E68
:100B000014C0DBFF0B0E15C0DBFF1200D9500A0F1B
:100B10001AEF06F0F36E070EF3CFDBFF1200EECFF5
:100B200014F0EFCF15F01200010EDB2A020E1200B6
:100B3000FC0EDBCFE6FFFD0EDBCFE6FF1200145EFE
:100B4000000E155AF70E14C0DBFFF80E15C0DBFFC0
:100B500014C0E9FF15C0EAFF1200DA20EA6EEF2A9E
:100B6000EECFF6FF000EEF22EECFF7FFEF22EECF33
:100B7000F8FF1200040EDBCFE6FF130EDB50E55248
:100B8000E75C9ADFDB5004DF060EDB501200090E33
:100B9000DB500A0DF350DF24D00FE76E090EE7CFCC
:100BA000DBFFB2EF04F0DB50F36E050EE0EF04F074
:100BB000F70EDBCF14F0F80EDBCF15F01200DFCF0D
:100BC000E6FFBCEF04F028DF030EECDE61EF05F07A
:100BD0000EEC00F0E552E552E552E5520009120034
:100BE000BDDEEE50EFCFEAFFE96E010E1200130EEC
:100BF000DB50F36E040EE0EF04F0040EDB50F36EF6
:100C0000090EE0EF04F0DBCFE6FFBCEF04F0E76E87
:100C1000050EE7CFDBFF12008BDFDFEF05F0DBCF48
:100C2000E6FF86DFE8EF05F0D950F90FE96EFF0E19
:0E0C3000ADEF05F0E96E000EDA20EA6E12005C
:020C3E00DACF0B
:100C4000E4FFE2CFDAFFE9CFE4FFEACFE4FFE652C8
:100C50009E50200B2EE09D50200B2BE0AECFC7F016
:100C60002A0E0001C75D05E12A0EB86F010EC86F9C
:100C700020D0230EC75D0DE1C8C0C9F0C851EA6A93
:100C8000B80FE96E000EEA22EF6AC86B010ECA6F58
:100C900010D0C8510DE00F0EC85D0AE2C851C82B34
:100CA000EA6AB80FE96E000EEA22C7C0EFFF01D072
:100CB000C86BF250200B0FE0F250040B0CE0F294E2
:100CC000D76AD66A0001CE2B030ECE5D03E3CE6B4E
:100CD000010ECB6FD58EE552E5CFEAFFE5CFE9FFF8
:100CE000E5CFDAFF11009268030EB86EB96A010E03
:100CF000C26EC16ABC0EC06E9A6A996A1200C28244
:100D0000C2B2FED7C450166E16C017F0166AC35092
:100D100000011610146E17C015F014C0F3FF15C0B3
:100D2000F4FF00D01200929A95949596958896902B
:100D3000958A8C868C8412009F0EE66E38EC14F037
:100D4000E552000EE66EE66A1CEC14F0E552E55240
:100D5000D08EF1841200D9CFE6FFE1CFD9FFE65261
:100D6000DF6A070EDF5C12E2DF28EA6A8B0FE96EAA
:100D7000000EEA22EF50E66EDF28E66EE66AAFEC80
:100D800013F0E552E552E552DF2AEBD7E552E55282
:100D9000E7CFD9FF1200D9CFE6FFE1CFD9FF020E8E
:100DA000E1260400A0DFBFDFC7DF330EE66EE66A90
:100DB0007C0EE66EF0EC12F0E552E552E5520001D1
:100DC000C86B9F8A0001CA6B0400000EE66EE66ADB
:100DD000FAEC13F0E552E552DF6E520EDF5C21E1D2
:100DE000010EDB6A070EF36E010EDBCFF4FFF3504A
:100DF000F45C16E2010EDB28E66EE66AFAEC13F00C
:100E0000E552E552E66E010EDB28EA6A8B0FE96EC9
:100E1000000EEA22E552E750EF6E010EDB2AE2D720
:100E20001CD000018C6B00018D6B00018E6B0001EA
:100E3000010E8F6F00012C0E906F0001916B00016D
:100E4000500E926F520EE66E000EE66EE66AAFEC42
:100E500013F0E552E552E5527EDF00013E0E8B6F46
:100E60000001230E936FD08EF28E020EE15C02E23F
:100E7000E16AE552E16EE552E7CFD9FF12001200B8
:100E8000D9CFE6FFE1CFD9FFFD0EDBCF14F0FE0E88
:100E9000DBCF15F00001800E151410E0FD0EDBCF46
:100EA00014F0FE0EDBCF15F0146C151E000E15228B
:100EB00014C0F3FF15C0F4FF0CD00BD0FD0EDBCF38
:100EC00014F0FE0EDBCF15F014C0F3FF15C0F4FFD5
:100ED00000D0E552E7CFD9FF1200D9CFE6FFE1CF2E
:100EE000D9FFFE0EDB0403E100019D8F02D000015B
:100EF0009D9FE552E7CFD9FF1200D9CFE6FFE1CFA2
:100F0000D9FFFE0EDB0403E100019D8D02D000013C
:100F10009D9DE552E7CFD9FF1200D9CFE6FFE1CF83
:100F2000D9FFC00E00019D17FE0EDB509D13E55248
:100F3000E7CFD9FF1200D9CFE6FFE1CFD9FFFD0EF1
:100F4000DBCF14F0FE0EDBCF15F015C014F0156AE0
:100F500014C09BF0FD0EDBCF9CF0E552E7CFD9FF2C
:100F60001200640E0001725D61E372C014F0156A34
:100F7000166A176A6EC004F06FC005F070C006F004
:100F800071C007F014C009F015C00AF016C00BF0CC
:100F900017C00CF0D6EC13F004C081F005C082F04D
:100FA00006C083F007C084F081C004F082C005F061
:100FB00083C006F084C007F02C0E096E010E0A6E85
:100FC0000B6A0C6A77EC13F000C004F001C005F066
:100FD00002C006F003C007F0096A040E0A6E0B6A2D
:100FE0000C6AD6EC13F004C085F005C086F085C00D
:100FF000E6FF86C0E6FF9FDFE552E55200017C5127
:1010000010E16A51855D6B51865909E38551685D30
:101010008651695904E3010E6C6F6D6F02D06C6BE1
:101020006D6B726B6E6B6F6B706B716B7C5101E1F2
:10103000E6D0320E795D01E2E2D075C004F076C0F0
:1010400005F077C006F078C007F065EC0BF005C03E
:1010500014F006C015F007C016F008C017F079C0EC
:1010600007F054EC0BF005C018F006C019F007C0EB
:101070001AF008C01BF018C00AF019C00BF01AC013
:101080000CF01BC00DF014C005F015C006F016C022
:1010900007F017C008F080EC0BF005C07DF006C02B
:1010A0007EF007C07FF008C080F00A6A0B6AA00ECD
:1010B0000C6E400E0D6E7DC005F07EC006F07FC048
:1010C00007F080C008F0D3EC0BF005C014F006C0A8
:1010D00015F007C016F008C017F00A6A0B6A800EF8
:1010E0000C6E440E0D6E14C005F015C006F016C04F
:1010F00007F017C008F080EC0BF005C07DF006C0CB
:101100007EF007C07FF008C080F08F0E186EC20E10
:10111000196E660E1A6E420E1B6E7DC00AF07EC0FE
:101120000BF07FC00CF080C00DF018C005F019C0A6
:1011300006F01AC007F01BC008F0D3EC0BF005C096
:1011400014F006C015F007C016F008C017F0850EA1
:101150000A6EEB0E0B6E440E0C6E420E0D6E14C03A
:1011600005F015C006F016C007F017C008F040ECF7
:101170000CF005C07DF006C07EF007C07FF008C00F
:1011800080F00A6A0B6A0C6A0D6A7DC005F07EC0A9
:1011900006F07FC007F080C008F006EC0DF0010AF1
:1011A00005E100017D6B7E6B7F6B806B7DC005F080
:1011B0007EC006F07FC007F080C008F0D7EC0CF0CE
:1011C00006C07AF007C07BF00001CF51146E156A9B
:1011D00014507A5D15507B5904E3010E6C6F6D6FEE
:1011E00002D06C6B6D6B7BC014F0156A14C09EF05E
:1011F0007AC09FF0756B766B776B786B796B83AA8F
:1012000007D06C6B6D6BE66A78DEE552899A0AD07E
:101210006CC0E6FF72DEE55200016D51E8B0898ACC
:10122000E8A0899A00016C5140E0320E855D000E05
:10123000865934E32C0ED8808555010E86552EE351
:101240007351855D886F74518659896F800E891539
:1012500004E0886D891F000E8923893504E28851D6
:101260000108000E895507E3160EE66E56DEE552BC
:101270008C968C9412D07351855D7451865905E219
:10128000010E8A6F8C848C9604D0020E8A6F8C8635
:101290008C948AC0E6FF41DEE55206D08C968C9491
:1012A000160EE66E3ADEE55206D08C968C94160E3B
:1012B000E66E33DEE5521200D9CFE6FFE1CFD9FF6B
:1012C000080EE12668DD0400140EE66E54EC14F0FE
:1012D000E5520400140EE66E54EC14F0E5520400DE
:1012E0000001816B826B836B846B00016E6B6F6B93
:1012F000706B716B0001856B866B8CC014F014C031
:1013000015F0146A00018D5100011410736F15C09F
:1013100074F08FC014F014C015F0146A00019051DD
:1013200000011410686F15C069F091C014F014C06A
:1013300015F0146A00019251000114106A6F15C073
:101340006BF07F0E00018E150001CF6F00018E45FE
:10135000010B00017C6F00012A0E9A6F00019B6B4C
:1013600000019C6B00019D6B00019E6B00019F6B57
:101370000001230EA06F0001160E8A6F160EE66E96
:10138000CCDDE552000EE66EE66AA5EC11F0E55202
:10139000E552E66AA2DDE552E66AAFDDE5520001FC
:1013A000726B00016E6B6F6B706B716B0001756B14
:1013B000766B776B786B0001796BDF6A0001CC6B21
:1013C0000001CD6B010EDB6A060EDB6A0400835060
:1013D000100B01E0010EE66E80DDE5528350100B2C
:1013E00002E08D8001D08D90C2B23FD0060EDB505E
:1013F0001FE1C450166E16C017F0166AC3500001E4
:101400001610146E17C015F00001145000016E275D
:101410000001155000016F23000E7023712300019D
:10142000722B010EF36E060EF3CFDBFFC2841BD0CE
:10143000C450166E16C017F0166AC350000116107D
:10144000146E17C015F0000114500001752700013B
:10145000155000017623000E772378230001792BA5
:10146000060EDB6AC294C2827CDD04008350100B3E
:1014700001E0010EE66E31DDE5528350100B02E013
:101480008D8001D08D900001CA5101E19BD0010EE9
:10149000F36E030EF3CFDBFFB9C016F016C017F0E2
:1014A000166A0001BA5100011610146E17C015F02B
:1014B000040E14C0DBFF050E15C0DBFFD950040F6E
:1014C000E96EDACFEAFFE70ED880EE54030EED5452
:1014D0000AE3040EDBCF73F0050EDBCF74F0B9C066
:1014E0008CF0BAC08DF07F0E0001BB15E76E070EC1
:1014F000E7CFDBFF070EDB5063080AE3070EDBCF05
:10150000CFF00001BB45010B00017C6FBBC08EF02A
:10151000BCC016F016C017F0166A0001BD510001DC
:101520001610146E17C015F0040E14C0DBFF050E64
:1015300015C0DBFFD950040FE96EDACFEAFFE70EE2
:10154000D880EE54030EED540AE3040EDBCF68F0AE
:10155000050EDBCF69F0BCC08FF0BDC090F0BEC0FF
:1015600016F016C017F0166A0001BF5100011610E0
:10157000146E17C015F0040E14C0DBFF050E15C065
:10158000DBFFD950040FE96EDACFEAFFE70ED8800F
:10159000EE54030EED540AE3040EDBCF6AF0050EA1
:1015A000DBCF6BF0BEC091F0BFC092F0030EDB50FA
:1015B00002E0ABEC06F00001010ECD6F020EDB6A1B
:1015C0000001CA6B04008350100B01E0010EE66EAF
:1015D00084DCE5528350100B02E08D8001D08D90A9
:1015E0000001CB510CE0DF2A050EDF5C06E10001B3
:1015F000010ECC6F010EDB6ADF6A0001CB6B8350FA
:10160000100B01E0010EE66E68DCE5528350100B12
:1016100002E08D8001D08D900001CC510001CD11F0
:1016200038E0ACA236D00001CD511AE0020EDB50FA
:10163000EA6A8B0FE96E000EEA22EF50E66E6BEC61
:1016400014F0E552080EF36E020EDBCFF4FFF350F8
:10165000F45C03E2020EDB2A02D00001CD6B19D04C
:10166000010EDB50EA6A9A0FE96E000EEA22EF5093
:10167000E66E6BEC14F0E552060EF36E010EDBCF56
:10168000F4FFF350F45C03E2010EDB2A02D0000108
:10169000CC6B9CD6080EE15C02E2E16AE552E16E99
:0816A000E552E7CFD9FF12006B
:0816A8000F9E05D00F9E07AE56
:1016B00002D0076C0F8E07C001F0006A136A126A2D
:1016C000860E026E036A80EF0DF00F9E0CD00F9E07
:1016D00007AE09D0046C051E061E071EE86A052227
:1016E000062207220F8E07C001F006C000F005C0D9
:1016F00013F004C012F09E0E026E036A80EF0DF02C
:101700000F6ABCEC0DF0D4EC0DF00FB664EF0DF0E9
:101710000FA205D00FBA64EF0DF06BEF0DF00FBA0A
:1017200077EF0DF00FA005D00FB864EF0DF077EF55
:101730000DF00FB86BEF0DF0036A7F0E0824026EF8
:10174000E86A03220D50025EE86A035A1A0E106E10
:10175000086A126A136A006A016A0A50055E0B5031
:10176000065A0C50075A000E085A09E70A50052677
:101770000B5006220C500722000E082201D0128ABC
:10178000D8900536063607360836D8901236133606
:1017900000360136102EE1D7075006100510D8A4E8
:1017A000128A80EF0DF00F6ABCEC0DF0D4EC0DF056
:1017B0000FB664EF0DF00FA205D00FB864EF0DF077
:1017C0006BEF0DF00FAA05D00FB064EF0DF06BEFCB
:1017D0000DF00FB002D00FA802D077EF0DF0036A22
:1017E0000D500824026EE86A03227E0E025EE86A4B
:1017F000035A126A136A006A016A0C500702F4CF96
:1018000001F0F3CF00F00B500702F3501326F45011
:101810000022000E01220C500602F3501326F45051
:101820000022000E01220A500702F3501226F45043
:101830001322000E002201220B500602F350122642
:10184000F4501322000E002201220C500502F35026
:101850001226F4501322000E002201220A50060222
:10186000F4501226000E1322002201220B50050212
:10187000F4501226000E13220022012280EF0DF0F8
:101880000D7E0F6ABCEC0DF0D4EC0DF00FB664EFDA
:101890000DF00FA20AD00FAA03D00FBE64EF0DF017
:1018A0000FA470EF0DF06DEF0DF00FAA05D00FAC87
:1018B00070EF0DF06DEF0DF00FA00AD00FA808D05B
:1018C0000FBE04D00FA402D079EF0DF07DEF0DF024
:1018D000126A036A0D50085C116E10E305C013F024
:1018E00006C000F007C001F008C010F00AC005F003
:1018F0000BC006F00CC007F00F3A09D00AC013F075
:101900000BC000F00CC001F00DC010F0116C0F9E68
:101910000FBC0F8E10C002F00FB0ACEF0DF01A0E1E
:101920001160ACEF0DF0026A086A0FA408D0056CD4
:10193000061E071E081EE86A0622072208220FACB0
:1019400008D0136C001E011E021EE86A002201224C
:101950000222046A115207E00834073206320532C7
:101960000432112EF9D705501326065000220750D5
:1019700001220850022204C012F00F9E02AE0BD0CA
:10198000126C131E001E011E021EE86A13220022A2
:10199000012202220F8E02A006D0D880013200322E
:1019A00013321232102A10C002F080EF0DF00F6ACD
:1019B000BCEC0DF00FB6E1EF0CF00FA20ED00FB49F
:1019C00005D07F0E076EFF0E066E1FD0800E076ECD
:1019D000066A1BD0076A066A18D00FB0FBD78F0EB5
:1019E0000860EDD77E0E0864F5D78E0E085C05E022
:1019F000D89007320632082AF8D70FA406D0066C12
:101A0000071EE86A072207AEE5D712000FEC0DF0BB
:101A10000FB6000C0FB0000C0FA4000C010C0F6AE5
:101A2000BCEC0DF0D4EC0DF00FB612000FAE08D0E8
:101A30000FA004D00FA802D00F8012000F90120048
:101A40000D50085C0BE10C50075C08E10B50065C84
:101A500005E10A50055C02E10F801200D8A002D017
:101A60000F8E10D008500DC008F00D6E07500CC03E
:101A700007F00C6E06500BC006F00B6E05500AC046
:101A800005F00A6E0D50085C10E0FF0F09E00F90A2
:101A90000FB403D00FAE0F8412000FAE0F941200DC
:101AA0000D2AD8900C320B320A320A50055E0B50C8
:101AB000065A0C50075A07BEEAD7D89005360636A4
:101AC0000736082EF8D7C8D77F0E086EFF0E076EB0
:101AD000066E056E12007F0E0FBEFF0E086E02D05E
:101AE0007F0E086E800E076E066A056AF3D70FAE8A
:101AF00004D0800E086E076AF7D7086A076AF4D721
:101B00000150001013101210F8E003BEF0D701BE10
:101B10000CD002500310EBE0D8901236133600368A
:101B200001360206D8A00306F2D70350D4E10228FA
:101B3000D2E012AE11D07F0E121402E113A00CD02D
:101B4000132AE86A0022012207E3D880013200321A
:101B50001332022A0228BFE00250C9E013C005F088
:101B600000C006F00134076E0230086E0732089E8E
:101B70000FBE088E6AEF0DF00736083602E30F84B9
:101B80000F7E06E10F80086A076A066A056A12007E
:101B9000082803E0D88007321200D890073202E10B
:101BA0000F8212000F8612000C360D3602E30F8CE6
:101BB0000F7E06E10F880D6A0C6A0B6A0A6A120032
:101BC0000D2803E0D8800C321200D8900C32EAE1E4
:101BD0000F8A120007C013F006C012F006500B0265
:101BE000F4CF05F0F3CF04F007500C02F4CF07F068
:101BF000F3CF06F00B02F3500526F4500622E86AF4
:101C0000072212500C02F3500526F4500622E86A0F
:101C100007220CAE10EF0EF01250065E1350075A5A
:0E1C200013AE000C0B50065E0C50075A000C61
:021C2E00500E56
:101C3000E66E94EC14F0E5521200040EE66E94EC9D
:101C400014F0E55212000A0EE66ED0EC14F0E552E4
:101C50001200939493969398939A9390949A939254
:101C60008A848A868A988A9A8A908B9A8A92DFDFF7
:101C7000DEDF8A848A868A988A9A8A908B9A8A82F8
:101C80008FD98A92DADFD9DFD8DF8A848A868A9868
:101C90008A9A8A908B9A8A8283D98A92CEDF320E70
:101CA000E66E9BD8E552C9DF280EE66E96D8E5525F
:101CB000C4DF0C0EE66E91D8E552BFDF060EE66E6D
:101CC0008CD8E552BADF010EE66E87D8E5521200D5
:101CD000D9CFE6FFE1CFD9FFFE0EDB5005E00E0EB7
:101CE000E66E7BD8E55204D00C0EE66E76D8E5524F
:101CF000A4DFE552E7CFD9FF1200010EE66E6DD8E2
:101D0000E5521DEF0EF0D9CFE6FFE1CFD9FF4AD95A
:101D1000000901E0FCD7939493969398939A8A9044
:101D20008B9A8A8A060E146EFE0EDB50400B14C08E
:101D3000E7FFE75204E0E8427F0BE706FCE1E8B08A
:101D40008A88E8A08A98FE0EDB50200BE00BE8386A
:101D5000E840E8B08A86E8A08A96FE0EDB50100BB9
:101D6000E8380F0BE8B08A84E8A08A948A8218D9F0
:101D70008A9216D98A908B9AFE0EDB50080BE840A7
:101D8000E840E8401F0BE8B08A8AE8A08A9AFE0E75
:101D9000DB50040BE840E8403F0BE8B08A88E8A03D
:101DA0008A98FE0EDB50020BE8407F0BE8B08A8673
:101DB000E8A08A96FE0EDB50010BE8B08A84E8A00A
:101DC0008A948A82EDD88A92EBD8938493869388FA
:101DD000938AE552E7CFD9FF1200D9CFE6FFE1CFD2
:101DE000D9FFE0D8000901E0FCD79394939693982B
:101DF000939AFE0EDB50800BE844010BE8B08A8A10
:101E0000E8A08A9A060E146EFE0EDB50400B14C03A
:101E1000E7FFE75204E0E8427F0BE706FCE1E8B0A9
:101E20008A88E8A08A98FE0EDB50200BE00BE83889
:101E3000E840E8B08A86E8A08A96FE0EDB50100BD8
:101E4000E8380F0BE8B08A84E8A08A948A908B9ACD
:101E5000A7D88A82A5D88A92FE0EDB50080BE840EC
:101E6000E840E8401F0BE8B08A8AE8A08A9AFE0E94
:101E7000DB50040BE840E8403F0BE8B08A88E8A05C
:101E80008A98FE0EDB50020BE8407F0BE8B08A8692
:101E9000E8A08A96FE0EDB50010BE8B08A84E8A029
:101EA0008A947ED88A827CD88A927AD893849386C0
:101EB0009388938AE552E7CFD9FF1200D9CFE6FF86
:101EC000E1CFD9FF6FD8000901E0FCD79394939636
:101ED0009398939A8A808B9AFE0EDB50800BE8448D
:101EE000010BE8B08A8AE8A08A9A060E146EFE0EEC
:101EF000DB50400B14C0E7FFE75204E0E8427F0BE1
:101F0000E706FCE1E8B08A88E8A08A98FE0EDB507C
:101F1000200BE00BE838E840E8B08A86E8A08A9613
:101F2000FE0EDB50100BE8380F0BE8B08A84E8A0F7
:101F30008A948A8235D88A9233D88A808B9AFE0E08
:101F4000DB50080BE840E840E8401F0BE8B08A8A05
:101F5000E8A08A9AFE0EDB50040BE840E8403F0BF5
:101F6000E8B08A88E8A08A98FE0EDB50020BE840B1
:101F70007F0BE8B08A86E8A08A96FE0EDB50010B44
:101F8000E8B08A84E8A08A948A820AD88A9208D81B
:101F9000938493869388938AE552E7CFD9FF120002
:101FA00023EF0EF08A9A8A988A968A948B8A8A906E
:101FB000F7DF8A82F5DF81AA09D08A92F1DF8A826F
:101FC000EFDF8A928B9A010E09D008D08A92E8DF5F
:101FD0008A82E6DF8A928B9A000E00D01200D9CF57
:101FE000E6FFE1CFD9FF020EE126E20EDE6E000E23
:101FF000DD6EDECFE9FFDDCFEAFFEF50E66E5EDF9C
:10200000E552DF2A010E01E3DB2ADECFE9FFDDCF57
:10201000EAFFEF50EEE1020EE15C03E200D0E16A7C
:0C202000E552E16EE552E7CFD9FF120057
:04202C00D9CFE6FF23
:10203000E1CFD9FFE65229EC0EF00001D76B480E34
:10204000E66EEDEC0EF0E552DF6ADF50146E156AB5
:10205000100E145C000E15580DE2DF50EA6A370FBF
:10206000E96E010EEA22EF50E66E5EEC0FF0E552EB
:10207000DF2AEBD7800EE66EEDEC0EF0E5520001A4
:10208000E06BE16BE552E552E7CFD9FF12007DEC42
:102090000EF0E66A83EC0EF0E552210EE66E010EBC
:1020A000E66EE20EE66E000EE66E4DEC12F0E552C4
:1020B000E552E552E552EFEC0FF0400EE66E83EC90
:1020C0000EF0E552270EE66E010EE66EE20EE66EAB
:1020D000000EE66E4DEC12F0E552E552E552E55287
:1020E000EFEC0FF0010EE66E68EC0EF0E552460ED6
:1020F000E66E83EC0EF0E552D5C0E6FFD6C0E6FFF3
:10210000C50E146E290E156E166A14C0E6FF15C0B2
:10211000E6FF16C0E6FFE20EE66E000EE66EF7EC96
:1021200011F0176E070EE15E1750EFEF0FF0140E6F
:102130000001E15D03E3ABDF0001E16BD00567E186
:102140000F0EE05D64E3060EE66E83EC0EF0E552E2
:10215000D8C0E6FFD9C0E6FFD3C0E6FFD4C0E6FF93
:10216000BB0E146E290E156E166A14C0E6FF15C05C
:10217000E6FF16C0E6FFE20EE66E000EE66EF7EC36
:1021800011F0176E090EE15E1750EFEC0FF0DCC096
:10219000E6FF5EEC0FF0E5524B0EE66E83EC0EF0C0
:1021A000E552DAC0E6FFDBC0E6FFB60E146E290E7C
:1021B000156E166A14C0E6FF15C0E6FF16C0E6FFEE
:1021C000E20EE66E000EE66EF7EC11F0176E070EEB
:1021D000E15E1750EFEC0FF0DDC0E6FF5EEC0FF0B4
:1021E000E552160E0001DC5D06E00F0EE66E83EC94
:1021F0000EF0E55208D0160EDD5D05E04F0EE66EDE
:1022000083EC0EF0E5520001E06BE12B01D0E02BF6
:102210001200D9CFE6FFE1CFD9FFFE0EDB0404E0C8
:10222000FE0EDB50020807E10001D75104E12FDF69
:102230000001010ED76FFE0EDB50020A52E0030AC6
:102240002FE0010A01E04ED07DEC0EF0E66A83EC4F
:102250000EF0E552000EE66E010EE66EE20EE66E40
:10226000000EE66E4DEC12F0E552E552E552E552F5
:10227000EFEC0FF0400EE66E83EC0EF0E552110E1F
:10228000E66E010EE66EE20EE66E000EE66E4DECB8
:1022900012F0E552E552E552E552EFEC0FF022D094
:1022A000460EE66E83EC0EF0E552D5C0E6FFD6C0D2
:1022B000E6FFC50E146E290E156E166A14C0E6FFF1
:1022C00015C0E6FF16C0E6FFE20EE66E000EE66EF3
:1022D000F7EC11F0176E070EE15E1750EFEC0FF000
:1022E00001D000D0FE0EDBCFD0F0E552E7CFD9FF12
:1022F0001200D9CFE6FFE1CFD9FFFE0EDB5006E09A
:1023000000012D0ED86F010ED96F05D00001350EDA
:10231000D86F010ED96FE552E7CFD9FF1200D9CFA0
:10232000E6FFE1CFD9FFFE0EDB5006E00001310EE3
:10233000DA6F010EDB6F05D00001350EDA6F010E8A
:10234000DB6FE552E7CFD9FF1200D9CFE6FFE1CF2F
:10235000D9FFFD0EDBCFD3F0FE0EDBCFD4F0E5527C
:10236000E7CFD9FF1200D9CFE6FFE1CFD9FFFD0EAD
:10237000DBCFD5F0FE0EDBCFD6F0E552E7CFD9FFAD
:102380001200D9CFE6FFE1CFD9FF0001160EDC6FB6
:10239000DD6FD0050BE1FE0EDB0402E1010EDC6F08
:1023A000FE0EDB50020802E1020EDD6FE552E7CFC0
:1023B000D9FF1200D9CFE6FFE1CFD9FFFE0EDB50E7
:1023C000460FE66E83EC0EF0E552FD0EDB50300F4B
:1023D000E66E5EEC0FF0E552FE0EDB50460FE66E49
:0E23E00083EC0EF0E552E552E7CFD9FF120074
:0223EE00D9CF45
:1023F000E6FFDACFE6FFE1CFD9FFE2CFDAFFE65220
:10240000E652E652E652D950F90F146EFF0EDA206A
:10241000156E020E14C0DBFF030E15C0DBFF020EAB
:10242000DBCFE6FF030EDBCFE6FFF90EDBCFE6FFE7
:10243000FA0EDBCFE6FFFB0EDBCFE6FFD950FC0F39
:10244000E66EFF0EDA20E66E24EC00F0146E070E46
:10245000E15C02E2E16AE552E16E1450F3CFDEFF87
:10246000F4CFDDFFFC0EDBCFE9FFFD0EDBCFEAFF93
:10247000EF6ADECF14F0DDCF15F014C0F3FF15C006
:10248000F4FF040EE15C02E2E16AE552E16EE5521E
:0A249000E5CFDAFFE7CFD9FF120015
:06249A00D9CFE6FFDACF06
:1024A000E6FFFA0EE3CFD9FFFB0EE3CFDAFFFC0E17
:1024B000E3CFE9FFFD0EE3CFEAFFE9CFF3FFEACF79
:1024C000F4FFDECFEFFFEE66FCD7FF0EE3CFDAFFBF
:1024D000E552FF0EE3CFD9FFE5521200FE0EE3CF27
:1024E000E9FFFF0EE3CFEAFFF36AF46AEE5203E07E
:1024F000F34AF42AFBD71200FF0EE3CFF8FFE552B0
:10250000FF0EE3CFF7FFE552FF0EE3CFF6FFE552F4
:10251000E66AE66AE66A0900F55209E0FD0EE32A7A
:1025200005E1FE0EE32A02E1FF0EE32AF4D7FD0ED9
:10253000E3CF05F0FE0EE3CF06F0FF0EE3CF07F08A
:02254000120087
:0E2542000E0EF66E000EF76E000EF86E000123
:102550000900F550F76F0900F550F86F03E1F767D0
:1025600001D03DD00900F550F26F0900F550F36F2E
:102570000900F550F46F09000900F550E96E0900F3
:10258000F550EA6E090009000900F550F56F0900E1
:10259000F550F66F09000900F6CFF9F0F7CFFAF021
:1025A000F8CFFBF0F2C0F6FFF3C0F7FFF4C0F8FF7E
:1025B0000001F55302E1F65307E00900F550EE6E15
:1025C000F507F8E2F607F9D7F9C0F6FFFAC0F7FF0A
:1025D000FBC0F8FF0001F707000EF85BBFD7120041
:1025E000D9CFE6FFDACFE6FFE1CFD9FFE2CFDAFFBE
:1025F000AC6AAB6AFD0EDBB0AC88DBA202D0AC8C5F
:10260000AB8CDBB4AC8EDBA602D0AB8801D0AB8A3E
:10261000DBB8AC849E98DBBAAB86DBAC02D09D8A7B
:1026200001D09D9A9E9ADBAE02D09D8801D09D98E4
:10263000FB0EDB50AF6EFB0EFC0EDBCF15F015C0B2
:1026400014F0156A1450B06EAC8AAB8E949C948EC4
:10265000AC50100B04E0AC50800B01E1948CE552BF
:0A266000E5CFDAFFE7CFD9FF120043
:06266A00D9CFE6FFDACF34
:10267000E6FFE1CFD9FFE2CFDAFFFB0EDBCF14F0AC
:10268000FC0EDBCF15F00001800E15141AE1FB0ED5
:10269000DBCFE9FFFC0EDBCFEAFFEECFF3FFEDCFA0
:1026A000F4FFEE2A000EEF22F3CFE9FFF4CFEAFFAA
:1026B000FD0EDBCFEFFFEF50156AF36E15C0F4FF90
:1026C00010D0FB0EDB50FE0806E1FD0EDBCFE6FF6F
:1026D000C2EC14F005D0FD0EDBCFE6FF03EC00F0FA
:0E26E000E552E552E5CFDAFFE7CFD9FF120051
:0226EE00045096
:1026F0000902F3CF00F0F4CF01F00A02F3500126F3
:10270000000EF420026E04500B02F3500226000E5D
:10271000F420036E04500C02F35003260550090206
:10272000F3500126F4500222000E032205500A0243
:10273000F3500226F450032205500B02F3500326F7
:1027400006500902F3500226F450032206500A02F2
:0E275000F350032607500902F350032612002F
:02275E00D9CFD1
:10276000E6FFDACFE6FFE1CFD9FFE2CFDAFFFF0ED7
:10277000E76EFC0EDBCF14F0E75014161450A96E70
:10278000FB0EDB50A86EA69EA69CA684F29E550E5C
:10279000A76EAA0EA76EA682A6B2FED7F28EA69448
:0C27A000E552E5CFDAFFE7CFD9FF1200C9
:0427AC00036A026A50
:1027B000016A006A200EE76ED890043605360636A8
:1027C000073600360136023603360950005C0A50DF
:1027D00001580B5002580C50035809E30950005E91
:1027E0000A50015A0B50025A0C50035A042AE72E81
:0427F000E4D7120018
:0C27F400D9CFE6FFDACFE6FFE1CFD9FF36
:10280000E2CFDAFFFF0EE76EFC0EDBCF14F0FD0E19
:10281000DBCF15F0E7501416156A1450A96EA69C6C
:10282000A69EA68000000000A85000D0E552E5CF8B
:08283000DAFFE7CFD9FF120027
:08283800D9CFE6FFDACFE6FF7D
:10284000E1CFD9FFE2CFDAFFE652E652FC0EDBCF52
:10285000DEFFDBCFDDFF010EDB50D76EDF50D66E23
:10286000E552E552E552E5CFDAFFE7CFD9FF120096
:10287000D9CFE6FFDACFE6FFE1CFD9FFE2CFDAFF2B
:10288000FD0EDB507F0BD56ED76AD66AF294FD0E33
:10289000DBAE02D0F28A01D0F29AD58EE552E5CFB6
:0828A000DAFFE7CFD9FF1200B7
:0828A800FF0EE3501D6EEF0E60
:1028B00001D0F30EE76EE72E5BEF14F00C0E1C6EEA
:1028C000E76AE72E61EF14F01C2E60EF14F01D2E66
:0628D00059EF14F01200A4
:0A28D600D9CFE6FFDACFE6FFE1CF2D
:1028E000D9FFE2CFDAFFACAC04D0AC900001FCB36E
:1028F000AC80FD0EDB50AD6EE552E5CFDAFFE7CFE1
:04290000D9FF1200E9
:0C290400F36AF46AFF0EE124E96EFF0E96
:10291000E220EA6EED6607D02F0EEF6404D03A0E87
:08292000EF6001D0F32A120060
:08292800FF0EE3501D6E480E86
:1029300001D04C0EE76EE72EFED7E76AE72EFED7F2
:082940001D2EF7D70000120064
:08294800000EF36E00EE00F03A
:10295000030E01D81200EA6002D0EE6AFCD7F350F1
:08296000E9601200EE6AFCD7E9
:0829680012EE00F022EE00F077
:10297000F86A0F9CA1EC12F0EDEC14F05CEC09F09D
:04298000FBD712006F
:0C298400FF0EE350ACBA04D0AF6AAB8E7B
:10299000AC8A949CACA2FED7AD6EF36EF46A1200C2
:1029A000FF0EE350E84E1200000000D000D000D02F
:0629B000E82EFAD7120028
:0A29B600253373200025337520201F
:0929C00025337320002533750056
:0729C90030313233343536A2
:0A29D0003738396162636465660000
:0229DA001200E9
:0429DC0033542052FE
:1029E0004F424F5449432047524F55500077777715
:1029F0002E726F626F7433742E636F6D0054697042
:102A0000563A00536574563A00544F5200415243AF
:102A1000000000040E150404040404040404040467
:032A2000150E048C
:020000040030CA
:01000100C23C
:010003002FCD
:010006008178
:00000001FF
